:02000000802E50
:10003000758125758921758DE675985075884012F2
:10004000004278031200B5C285C28675A030D287FF
:10005000C287D8F075A03812008875A008120088F1
:1000600075A00112008875A00612008875A00C12F8
:10007000008822C0E0740093600BF5A0120094A3E6
:1000800074009380F3D0E0221200A0C285C286D211
:1000900087C287221200A0D285C286D287C2872259
:1000A000C0A075A0FFC285D286C287D28720A7F9DB
:1000B000C287D0A022C0E0C28CE58A24B8F58AE5C8
:0F00C0008C343CF58CC28DD28C308DFDD0E0227B
:00000001FF
