:02000000802E50
:1000300078031200A3C285C28675A030D287C2871A
:10004000D8F075A03812007675A00812007675A059
:100050000112007675A00612007675A00C120076CB
:1000600022C0E0740093600BF5A0120082A374001C
:100070009380F3D0E02212008EC285C286D287C25E
:10008000872212008ED285C286D287C28722C0A064
:1000900075A0FFC285D286C287D28720A7F9C28702
:1000A000D0A022C0E0C28CE58A24B8F58AE58C3461
:0D00B0003CF58CC28DD28C308DFDD0E0224D
:00000001FF
