:02000000802E50
:10003000758DE675985075892175884075812F12E8
:1000400000623098FDC298E59930D50875A001127C
:1000500000A8C2D5B40D04D2D58005F5A01200B415
:1000600080E078031200D5C295C29675A030D29771
:10007000C297D8F075A0381200A875A0081200A881
:1000800075A0011200A875A0061200A875A00C1298
:1000900000A822C0E0740093600BF5A01200B4A386
:1000A00074009380F3D0E0221200C0C295C296D2B1
:1000B00097C297221200C0D295C296D297C29722B9
:1000C000C0A075A0FFC295D296C297D29720A7F97B
:1000D000C297D0A022C0E0C28CE58A24B8F58AE598
:0F00E0008C343CF58CC28DD28C308DFDD0E0225B
:00000001FF
